{
  "_format": "hh-sol-artifact-1",
  "contractName": "SSI",
  "sourceName": "contracts/SSI.sol",
  "abi": [
    {
      "inputs": [],
      "stateMutability": "nonpayable",
      "type": "constructor"
    },
    {
      "anonymous": false,
      "inputs": [
        {
          "indexed": false,
          "internalType": "bytes32",
          "name": "_certificateId",
          "type": "bytes32"
        }
      ],
      "name": "certificateGenerated",
      "type": "event"
    },
    {
      "inputs": [
        {
          "internalType": "address",
          "name": "user",
          "type": "address"
        }
      ],
      "name": "allow",
      "outputs": [],
      "stateMutability": "nonpayable",
      "type": "function"
    },
    {
      "inputs": [
        {
          "internalType": "bytes32",
          "name": "",
          "type": "bytes32"
        }
      ],
      "name": "certificates",
      "outputs": [
        {
          "internalType": "string",
          "name": "candidate_name",
          "type": "string"
        },
        {
          "internalType": "string",
          "name": "org_name",
          "type": "string"
        },
        {
          "internalType": "string",
          "name": "course_name",
          "type": "string"
        },
        {
          "internalType": "address",
          "name": "candidate_add",
          "type": "address"
        },
        {
          "internalType": "uint256",
          "name": "expiration_date",
          "type": "uint256"
        }
      ],
      "stateMutability": "view",
      "type": "function"
    },
    {
      "inputs": [
        {
          "internalType": "address",
          "name": "user",
          "type": "address"
        }
      ],
      "name": "disAllow",
      "outputs": [],
      "stateMutability": "nonpayable",
      "type": "function"
    },
    {
      "inputs": [
        {
          "internalType": "string",
          "name": "_id",
          "type": "string"
        },
        {
          "internalType": "string",
          "name": "_candidate_name",
          "type": "string"
        },
        {
          "internalType": "string",
          "name": "_org_name",
          "type": "string"
        },
        {
          "internalType": "string",
          "name": "_course_name",
          "type": "string"
        },
        {
          "internalType": "address",
          "name": "_candidate_add",
          "type": "address"
        },
        {
          "internalType": "uint256",
          "name": "_expiration_date",
          "type": "uint256"
        }
      ],
      "name": "generateCertificate",
      "outputs": [],
      "stateMutability": "nonpayable",
      "type": "function"
    },
    {
      "inputs": [
        {
          "internalType": "string",
          "name": "_id",
          "type": "string"
        }
      ],
      "name": "getData",
      "outputs": [
        {
          "internalType": "string",
          "name": "",
          "type": "string"
        },
        {
          "internalType": "string",
          "name": "",
          "type": "string"
        },
        {
          "internalType": "string",
          "name": "",
          "type": "string"
        },
        {
          "internalType": "address",
          "name": "",
          "type": "address"
        },
        {
          "internalType": "uint256",
          "name": "",
          "type": "uint256"
        }
      ],
      "stateMutability": "view",
      "type": "function"
    },
    {
      "inputs": [],
      "name": "shareAccess",
      "outputs": [
        {
          "components": [
            {
              "internalType": "address",
              "name": "user",
              "type": "address"
            },
            {
              "internalType": "bool",
              "name": "access",
              "type": "bool"
            }
          ],
          "internalType": "struct SSI.Access[]",
          "name": "",
          "type": "tuple[]"
        }
      ],
      "stateMutability": "view",
      "type": "function"
    }
  ],
  "bytecode": "0x608060405234801561001057600080fd5b50611b55806100206000396000f3fe608060405234801561001057600080fd5b50600436106100625760003560e01c8063742f068814610067578063ae55c8881461009b578063bc8bef81146100cf578063c309ce10146100ed578063cf8aacdd14610109578063ff9913e814610125575b600080fd5b610081600480360381019061007c919061105e565b610141565b604051610092959493929190611175565b60405180910390f35b6100b560048036038101906100b09190611312565b61032f565b6040516100c6959493929190611175565b60405180910390f35b6100d76106f8565b6040516100e49190611463565b60405180910390f35b610107600480360381019061010291906114dd565b610800565b005b610123600480360381019061011e91906115da565b61098c565b005b61013f600480360381019061013a91906115da565b610bab565b005b600360205280600052604060002060009150905080600001805461016490611636565b80601f016020809104026020016040519081016040528092919081815260200182805461019090611636565b80156101dd5780601f106101b2576101008083540402835291602001916101dd565b820191906000526020600020905b8154815290600101906020018083116101c057829003601f168201915b5050505050908060010180546101f290611636565b80601f016020809104026020016040519081016040528092919081815260200182805461021e90611636565b801561026b5780601f106102405761010080835404028352916020019161026b565b820191906000526020600020905b81548152906001019060200180831161024e57829003601f168201915b50505050509080600201805461028090611636565b80601f01602080910402602001604051908101604052809291908181526020018280546102ac90611636565b80156102f95780601f106102ce576101008083540402835291602001916102f9565b820191906000526020600020905b8154815290600101906020018083116102dc57829003601f168201915b5050505050908060030160009054906101000a900473ffffffffffffffffffffffffffffffffffffffff16908060040154905085565b6060806060600080600061034287610feb565b90506000600360008381526020019081526020016000206040518060a001604052908160008201805461037490611636565b80601f01602080910402602001604051908101604052809291908181526020018280546103a090611636565b80156103ed5780601f106103c2576101008083540402835291602001916103ed565b820191906000526020600020905b8154815290600101906020018083116103d057829003601f168201915b5050505050815260200160018201805461040690611636565b80601f016020809104026020016040519081016040528092919081815260200182805461043290611636565b801561047f5780601f106104545761010080835404028352916020019161047f565b820191906000526020600020905b81548152906001019060200180831161046257829003601f168201915b5050505050815260200160028201805461049890611636565b80601f01602080910402602001604051908101604052809291908181526020018280546104c490611636565b80156105115780601f106104e657610100808354040283529160200191610511565b820191906000526020600020905b8154815290600101906020018083116104f457829003601f168201915b505050505081526020016003820160009054906101000a900473ffffffffffffffffffffffffffffffffffffffff1673ffffffffffffffffffffffffffffffffffffffff1673ffffffffffffffffffffffffffffffffffffffff1681526020016004820154815250509050806060015173ffffffffffffffffffffffffffffffffffffffff163373ffffffffffffffffffffffffffffffffffffffff161480610644575060016000826060015173ffffffffffffffffffffffffffffffffffffffff1673ffffffffffffffffffffffffffffffffffffffff16815260200190815260200160002060003373ffffffffffffffffffffffffffffffffffffffff1673ffffffffffffffffffffffffffffffffffffffff16815260200190815260200160002060009054906101000a900460ff165b610683576040517f08c379a000000000000000000000000000000000000000000000000000000000815260040161067a906116b3565b60405180910390fd5b60008160800151036106ca576040517f08c379a00000000000000000000000000000000000000000000000000000000081526004016106c19061171f565b60405180910390fd5b8060000151816020015182604001518360600151846080015196509650965096509650505091939590929450565b60606000803373ffffffffffffffffffffffffffffffffffffffff1673ffffffffffffffffffffffffffffffffffffffff168152602001908152602001600020805480602002602001604051908101604052809291908181526020016000905b828210156107f7578382906000526020600020016040518060400160405290816000820160009054906101000a900473ffffffffffffffffffffffffffffffffffffffff1673ffffffffffffffffffffffffffffffffffffffff1673ffffffffffffffffffffffffffffffffffffffff1681526020016000820160149054906101000a900460ff16151515158152505081526020019060010190610758565b50505050905090565b600061080b87610feb565b90506000600360008381526020019081526020016000206004015414610866576040517f08c379a000000000000000000000000000000000000000000000000000000000815260040161085d906117b1565b60405180910390fd5b6040518060a001604052808781526020018681526020018581526020018473ffffffffffffffffffffffffffffffffffffffff168152602001838152506003600083815260200190815260200160002060008201518160000190816108cb919061197d565b5060208201518160010190816108e1919061197d565b5060408201518160020190816108f7919061197d565b5060608201518160030160006101000a81548173ffffffffffffffffffffffffffffffffffffffff021916908373ffffffffffffffffffffffffffffffffffffffff160217905550608082015181600401559050507ff54e0f0055ffae318a21890316ed523f8a60aa59aaa279dfdcae7176155ec0db8160405161097b9190611a5e565b60405180910390a150505050505050565b6000600160003373ffffffffffffffffffffffffffffffffffffffff1673ffffffffffffffffffffffffffffffffffffffff16815260200190815260200160002060008373ffffffffffffffffffffffffffffffffffffffff1673ffffffffffffffffffffffffffffffffffffffff16815260200190815260200160002060006101000a81548160ff02191690831515021790555060005b6000803373ffffffffffffffffffffffffffffffffffffffff1673ffffffffffffffffffffffffffffffffffffffff16815260200190815260200160002080549050811015610ba7578173ffffffffffffffffffffffffffffffffffffffff166000803373ffffffffffffffffffffffffffffffffffffffff1673ffffffffffffffffffffffffffffffffffffffff1681526020019081526020016000208281548110610ad457610ad3611a79565b5b9060005260206000200160000160009054906101000a900473ffffffffffffffffffffffffffffffffffffffff1673ffffffffffffffffffffffffffffffffffffffff1603610b945760008060003373ffffffffffffffffffffffffffffffffffffffff1673ffffffffffffffffffffffffffffffffffffffff1681526020019081526020016000208281548110610b6f57610b6e611a79565b5b9060005260206000200160000160146101000a81548160ff0219169083151502179055505b8080610b9f90611ad7565b915050610a24565b5050565b60018060003373ffffffffffffffffffffffffffffffffffffffff1673ffffffffffffffffffffffffffffffffffffffff16815260200190815260200160002060008373ffffffffffffffffffffffffffffffffffffffff1673ffffffffffffffffffffffffffffffffffffffff16815260200190815260200160002060006101000a81548160ff02191690831515021790555060011515600260003373ffffffffffffffffffffffffffffffffffffffff1673ffffffffffffffffffffffffffffffffffffffff16815260200190815260200160002060008373ffffffffffffffffffffffffffffffffffffffff1673ffffffffffffffffffffffffffffffffffffffff16815260200190815260200160002060009054906101000a900460ff16151503610e605760005b6000803373ffffffffffffffffffffffffffffffffffffffff1673ffffffffffffffffffffffffffffffffffffffff16815260200190815260200160002080549050811015610e5a578173ffffffffffffffffffffffffffffffffffffffff166000803373ffffffffffffffffffffffffffffffffffffffff1673ffffffffffffffffffffffffffffffffffffffff1681526020019081526020016000208281548110610d8757610d86611a79565b5b9060005260206000200160000160009054906101000a900473ffffffffffffffffffffffffffffffffffffffff1673ffffffffffffffffffffffffffffffffffffffff1603610e475760016000803373ffffffffffffffffffffffffffffffffffffffff1673ffffffffffffffffffffffffffffffffffffffff1681526020019081526020016000208281548110610e2257610e21611a79565b5b9060005260206000200160000160146101000a81548160ff0219169083151502179055505b8080610e5290611ad7565b915050610cd7565b50610fe8565b6000803373ffffffffffffffffffffffffffffffffffffffff1673ffffffffffffffffffffffffffffffffffffffff16815260200190815260200160002060405180604001604052808373ffffffffffffffffffffffffffffffffffffffff168152602001600115158152509080600181540180825580915050600190039060005260206000200160009091909190915060008201518160000160006101000a81548173ffffffffffffffffffffffffffffffffffffffff021916908373ffffffffffffffffffffffffffffffffffffffff16021790555060208201518160000160146101000a81548160ff021916908315150217905550505060011515600260003373ffffffffffffffffffffffffffffffffffffffff1673ffffffffffffffffffffffffffffffffffffffff16815260200190815260200160002060008373ffffffffffffffffffffffffffffffffffffffff1673ffffffffffffffffffffffffffffffffffffffff16815260200190815260200160002060009054906101000a905050505b50565b6000808290506000815103611006576000801b91505061100f565b60208301519150505b919050565b6000604051905090565b600080fd5b600080fd5b6000819050919050565b61103b81611028565b811461104657600080fd5b50565b60008135905061105881611032565b92915050565b6000602082840312156110745761107361101e565b5b600061108284828501611049565b91505092915050565b600081519050919050565b600082825260208201905092915050565b60005b838110156110c55780820151818401526020810190506110aa565b60008484015250505050565b6000601f19601f8301169050919050565b60006110ed8261108b565b6110f78185611096565b93506111078185602086016110a7565b611110816110d1565b840191505092915050565b600073ffffffffffffffffffffffffffffffffffffffff82169050919050565b60006111468261111b565b9050919050565b6111568161113b565b82525050565b6000819050919050565b61116f8161115c565b82525050565b600060a082019050818103600083015261118f81886110e2565b905081810360208301526111a381876110e2565b905081810360408301526111b781866110e2565b90506111c6606083018561114d565b6111d36080830184611166565b9695505050505050565b600080fd5b600080fd5b7f4e487b7100000000000000000000000000000000000000000000000000000000600052604160045260246000fd5b61121f826110d1565b810181811067ffffffffffffffff8211171561123e5761123d6111e7565b5b80604052505050565b6000611251611014565b905061125d8282611216565b919050565b600067ffffffffffffffff82111561127d5761127c6111e7565b5b611286826110d1565b9050602081019050919050565b82818337600083830152505050565b60006112b56112b084611262565b611247565b9050828152602081018484840111156112d1576112d06111e2565b5b6112dc848285611293565b509392505050565b600082601f8301126112f9576112f86111dd565b5b81356113098482602086016112a2565b91505092915050565b6000602082840312156113285761132761101e565b5b600082013567ffffffffffffffff81111561134657611345611023565b5b611352848285016112e4565b91505092915050565b600081519050919050565b600082825260208201905092915050565b6000819050602082019050919050565b6113908161113b565b82525050565b60008115159050919050565b6113ab81611396565b82525050565b6040820160008201516113c76000850182611387565b5060208201516113da60208501826113a2565b50505050565b60006113ec83836113b1565b60408301905092915050565b6000602082019050919050565b60006114108261135b565b61141a8185611366565b935061142583611377565b8060005b8381101561145657815161143d88826113e0565b9750611448836113f8565b925050600181019050611429565b5085935050505092915050565b6000602082019050818103600083015261147d8184611405565b905092915050565b61148e8161113b565b811461149957600080fd5b50565b6000813590506114ab81611485565b92915050565b6114ba8161115c565b81146114c557600080fd5b50565b6000813590506114d7816114b1565b92915050565b60008060008060008060c087890312156114fa576114f961101e565b5b600087013567ffffffffffffffff81111561151857611517611023565b5b61152489828a016112e4565b965050602087013567ffffffffffffffff81111561154557611544611023565b5b61155189828a016112e4565b955050604087013567ffffffffffffffff81111561157257611571611023565b5b61157e89828a016112e4565b945050606087013567ffffffffffffffff81111561159f5761159e611023565b5b6115ab89828a016112e4565b93505060806115bc89828a0161149c565b92505060a06115cd89828a016114c8565b9150509295509295509295565b6000602082840312156115f0576115ef61101e565b5b60006115fe8482850161149c565b91505092915050565b7f4e487b7100000000000000000000000000000000000000000000000000000000600052602260045260246000fd5b6000600282049050600182168061164e57607f821691505b60208210810361166157611660611607565b5b50919050565b7f596f7520617265206e6f7420746865206f776e65720000000000000000000000600082015250565b600061169d601583611096565b91506116a882611667565b602082019050919050565b600060208201905081810360008301526116cc81611690565b9050919050565b7f4e6f206461746120657869737473000000000000000000000000000000000000600082015250565b6000611709600e83611096565b9150611714826116d3565b602082019050919050565b60006020820190508181036000830152611738816116fc565b9050919050565b7f4365727469666963617465207769746820676976656e20696420616c7265616460008201527f7920657869737473000000000000000000000000000000000000000000000000602082015250565b600061179b602883611096565b91506117a68261173f565b604082019050919050565b600060208201905081810360008301526117ca8161178e565b9050919050565b60008190508160005260206000209050919050565b60006020601f8301049050919050565b600082821b905092915050565b6000600883026118337fffffffffffffffffffffffffffffffffffffffffffffffffffffffffffffffff826117f6565b61183d86836117f6565b95508019841693508086168417925050509392505050565b6000819050919050565b600061187a6118756118708461115c565b611855565b61115c565b9050919050565b6000819050919050565b6118948361185f565b6118a86118a082611881565b848454611803565b825550505050565b600090565b6118bd6118b0565b6118c881848461188b565b505050565b5b818110156118ec576118e16000826118b5565b6001810190506118ce565b5050565b601f82111561193157611902816117d1565b61190b846117e6565b8101602085101561191a578190505b61192e611926856117e6565b8301826118cd565b50505b505050565b600082821c905092915050565b600061195460001984600802611936565b1980831691505092915050565b600061196d8383611943565b9150826002028217905092915050565b6119868261108b565b67ffffffffffffffff81111561199f5761199e6111e7565b5b6119a98254611636565b6119b48282856118f0565b600060209050601f8311600181146119e757600084156119d5578287015190505b6119df8582611961565b865550611a47565b601f1984166119f5866117d1565b60005b82811015611a1d578489015182556001820191506020850194506020810190506119f8565b86831015611a3a5784890151611a36601f891682611943565b8355505b6001600288020188555050505b505050505050565b611a5881611028565b82525050565b6000602082019050611a736000830184611a4f565b92915050565b7f4e487b7100000000000000000000000000000000000000000000000000000000600052603260045260246000fd5b7f4e487b7100000000000000000000000000000000000000000000000000000000600052601160045260246000fd5b6000611ae28261115c565b91507fffffffffffffffffffffffffffffffffffffffffffffffffffffffffffffffff8203611b1457611b13611aa8565b5b60018201905091905056fea2646970667358221220d3b53ded68ad4f125d7a89bfd2a55e5403e70ff88b9a7d1e7a6c88567336b98b64736f6c63430008110033",
  "linkReferences": {},
  "deployedLinkReferences": {}
}